:100000000C9434000C9449000C9449000C94490061
:100010000C9449000C9449000C9449000C9449003C
:100020000C9449000C9449000C9449000C9449002C
:100030000C9449000C9449000C9449000C9449001C
:100040000C9449000C9449000C9449000C9449000C
:100050000C9449000C9449000C9449000C944900FC
:100060000C9449000C94490011241FBECFEFD8E036
:10007000DEBFCDBF11E0A0E0B1E0E4E8F2E002C0F5
:1000800005900D92AE30B107D9F70E94EB000C94A9
:1000900040010C940000880F880F8BB9611102C0D9
:1000A0002C9801C02C9A8FE891E00197F1F700C0DD
:1000B00000002B9895E09A95F1F700002B9A85E0C7
:1000C0008A95F1F700002B988FE891E00197F1F7FE
:1000D00000C000000895CF93C82F60E082958F7014
:1000E0000E944B0060E08C2F8F700E944B00CF91DC
:1000F0000895CF93C82F61E082958F700E944B00C6
:1001000061E08C2F8F700E944B00CF9108958FEF8C
:1001100084B98AB98FE19EE40197F1F700C000002D
:1001200060E083E00E944B008FE19EE40197F1F7CD
:1001300000C0000060E083E00E944B008FE39CE978
:100140000197F1F700C0000060E083E00E944B00DF
:100150008FE891E00197F1F700C0000060E082E0D5
:100160000E944B008FE891E00197F1F700C000007A
:1001700088E20E946B0084E00E946B008FE00E9486
:100180006B0081E00E946B008FE39FE10197F1F724
:1001900000C0000008950F931F93CF93FC0180814E
:1001A000882359F08F01C0E00E947900CF5FF801E9
:1001B000EC0FF11D80818111F7CFCF911F910F912D
:1001C0000895611104C080580E946B000895805406
:1001D0000E946B0008950E94870060E085E00E9405
:1001E000E10080E091E00E94CB002FEF83ED90E3EF
:1001F000215080409040E1F700C0000086E091E08F
:100200000E94CB002FEF83ED90E32150804090407F
:10021000E1F700C0000084E091E00E94CB002FEFE6
:1002200083ED90E3215080409040E1F700C0000052
:1002300088E091E00E94CB002FEF83ED90E3215006
:1002400080409040E1F700C000008AE091E00E9409
:10025000CB002FEF83ED90E3215080409040E1F7F9
:1002600000C000008CE091E00E94CB002FEF83EDF6
:1002700090E3215080409040E1F700C00000FFCFA4
:04028000F894FFCF20
:0E02840068656C6C6F00770072006C0064009F
:00000001FF
